:030000000212F1F8
:0C12F100787FE4F6D8FD75815F021338A9
:1015E50020202020202020202020202020202020F6
:1015F500002E2E2E002100212020003A0076312ECB
:1016050030000416049705260575062006E007B880
:101615000416EF01FFFFFFFF0100030100050100B4
:101625000804010000001300210100040201000864
:1018E3000220000002220001022400000C26000056
:0A18F30000000000040403010002DD
:10182F00758921758DFD758BFD758CFF758A9CC231
:10183F008CD2A9D28ED29CC29FD29ED2ACD2AF22D2
:0319DD00EE93FF87
:0819E0008F993099FDC2992294
:070003003098FDAF99C2988F
:01000A0022D3
:10186F00E4FDFC74172DF58274163CF583E493FFA9
:0E187F001219E00DBD00010CED64064C70E581
:01188D002238
:0F19840012186FE4FE90161D1219DD0EBE06F646
:011993002231
:0F19940012186FE4FE90162E1219DD0EBE07F624
:0119A3002221
:10000E0012186FE4FEEE90162393FF1219E00EBE47
:02001E000BF3E2
:0100200022BD
:02194700AE07E9
:10194900E4FDEDC39E500C12000374082DF8A607A0
:031959000D80EF0F
:01195C002268
:0618AC00AE071FEE6015FF
:1018B200753DA7753CAB753B10D53BFDD53CF7D5C7
:0318C2003DF100F5
:0318C50080E52299
:0B19E800EF1FAC0670011E4C70F622D1
:0618C800AE071FEE6014E4
:1018CE00753FADE53FD3940040F0753E8FD53EFD9C
:0418DE00153F80EF43
:0118E20022E3
:0616C5008D3BEF4E603981
:1016CB00753C3A753D98E4F520F521AC06AD077EE7
:1016DB00277F10120E92AC06AD07E4120D99E4FBB6
:1016EB00FAF9783F120CA3120DD28E248F25D28CCF
:0916FB00AF3B1218C8C28CD29357
:0117040022C2
:101681007BFF7A1579E57541107D03E4FF1217059B
:101691007B067D03E4FF1213F77B077D037F1212A4
:1016A10013F77B087D037F241213F77B097D037FEA
:1016B100361213F77BFF7A1579F67541107D037F9A
:0416C10048021705BF
:101592007BFF7A1579E57541107D03E4FF1217058B
:1015A2007B087D03E4FF1213F77B097D037F121290
:1015B20013F77B187D037F241213F77B197D037FBA
:1015C200361213F77BFF7A1579FA7541107D037F86
:1015D20048121705901615E493FE740193FF7D05DA
:0315E2000216C529
:1011AD008F3A7BFF7A1579E57541107D03E4FF12C7
:1011BD0017057B0A7D03E4FF1213F77B0B7D037F7D
:1011CD00121213F77BFF7A1579FC7541107D037FA1
:1011DD0024121705E53A24FE601714602A146041A5
:1011ED002403704F7B017D037F3E1213F77B0C8030
:1011FD003B7B0D7D037F3E1213F77B0E7D037F50EE
:10120D001213F77B0F80147B107D037F3E1213F7B3
:10121D007B117D037F501213F77B127D037F62805C
:10122D000F7B137D037F3E1213F77B147D037F50DD
:10123D001213F7901611E493FE740193FF7D0512BE
:0C124D0016C5D2927F031218ACC2922288
:1014D200E4F53A75A00FE5A0640F60597FE87E033A
:1014E2001219E8E5A0F4604DAFA0EF24F5601024D6
:1014F200FE601114601324077012753A01800D7595
:101502003A028008753A038003753A0475A0F0AF79
:10151200A0EF2450601124E0601124F060112470C7
:101522007013853A3A800E7404800674088002743F
:071532000C253AF53AAF3A2F
:01153900228F
:10163500EFB40A005043901642F82828730216604A
:1016450002166302166602166902166C02166F020E
:10165500167202167502167802167B7F30227F31CC
:10166500227F32227F33227F34227F35227F36222A
:0C1675007F37227F38227F39227F2A2213
:10153A008F3A8D3B7B167D03E4FF1213F77B177DF1
:10154A00037F121213F77BFF7A1679007541107D1B
:10155A00037F24121705AF3A121635AB07E53B7520
:10156A00F008A4242CFF7546107D031210F07F208A
:10157A007E4E1219E8E53B75F008A4242CFF754647
:08158A00107B2A7D030210F022
:10125900E4F537F5387539010538E5387002053791
:101269001214D2EF60691FEFD3940950028001C3B1
:1012790050E674262539F8A607E5A0B4F0FB7426D4
:101289002539F8E6FFAD3912153A0539E4F537F590
:1012990038E53964067038F535F536AF36742C2FD4
:1012A900F8E6FE74262FF8E66E600B1215927F01A0
:1012B9001218AC7F00220536E53670020535C39455
:1012C90006E535940040D47F051211AD7F0122AEA9
:1012D90037AF38E4FCFD7B607AEAF9F8D3120EF5F2
:0712E90040030212617F00C7
:0112F00022DB
:100F0B00E4F532F53312182FC29212101012184F4B
:100F1B00E4FBFD7F031213F77B01E4FD7F15121336
:100F2B00F77B02E4FD7F271213F77B03E4FD7F3988
:100F3B001213F77B05E4FD7F4B1213F77BFF7A1639
:100F4B007902754110E4FD7F5D121705121681D2EF
:100F5B00930533E533700205321214D28F34EF60F0
:100F6B002A1534E534D3940950218534267BFF7A36
:100F7B001579E57541107D03E4FF121705E4FDAF0C
:100F8B003412153A121259EF1216812094057F056F
:100F9B001211ADE533B410B9E532B427B4E4F52240
:100FAB00F5231219847F0C121947E511704A121997
:100FBB00947F0C121947E511703E12000E7F101230
:100FCB001947E5117027E51324FE600E14600F140A
:100FDB006010240370107F01800E7F02800A7F0354
:100FEB0080067F0480027F051211AD8008121592D6
:100FFB007F011218AC121681E4F532F533F5227528
:05100B002301020F5C4F
:03000B0002179D3C
:10179D00C0E0C0D0758CFF758A9C0521E5217002D3
:1017AD000520C39525E52095244008B293752000AA
:0817BD00752100D0D0D0E0320C
:030023000219D0EF
:0D19D000C0E0E52345226002C298D0E0325D
:1000260000000000000000000000000000000000CA
:10003600000000000000000000F8000000000000C2
:1000460000333000000000100C06100C0600000003
:1000560000000000000040C07840C0784000043F27
:1000660004043F040400007088FC083000000018F7
:1000760020FF211E0000F008F000E018000000211B
:100086001C031E211E0000F00888700000001E21BF
:1000960023241927211010160E000000000000006E
:1000A600000000000000000000E01804020000004C
:1000B60000071820400000020418E000000000407D
:1000C600201807000000404080F0804040000202F7
:1000D600010F01020200000000F000000000010113
:1000E600011F01010100000000000000000080B0B7
:1000F6007000000000000000000000000000000189
:1001060001010101010100000000000000000030B3
:10011600300000000000000000008060180400604D
:1001260018060100000000E010080810E000000FAB
:10013600102020100F00001010F800000000002012
:10014600203F20200000007008080888700000305A
:100156002824222130000030088888483000001802
:10016600202020110E000000C02010F8000000071B
:100176000424243F240000F8088888080800001991
:10018600212020110E0000E0108888180000000FC2
:10019600112020110E0000380808C8380800000099
:1001A600003F000000000070880808887000001CEE
:1001B600222121221C0000E010080810E0000000A7
:1001C600312222110F00000000C0C0000000000014
:1001D6000030300000000000008000000000000039
:1001E6008060000000000000804020100800000130
:1001F60002040810200040404040404040000404F3
:1002060004040404040000081020408000000020BC
:10021600100804020100007048080808F0000000F9
:10022600003036010000C030C828E810E00007188A
:10023600272423140B000000C038E0000000203CF7
:1002460023020227382008F8888888700000203F9B
:10025600202020110E00C0300808080838000718B2
:1002660020202010080008F808080810E000203FA9
:10027600202020100F0008F88888E8081000203F8A
:1002860020202320180008F88888E8081000203F5E
:10029600200003000000C0300808083800000718D6
:1002A6002020221E020008F808000008F808203F57
:1002B600210101213F20000808F80808000000205D
:1002C600203F2020000000000808F8080800C08031
:1002D60080807F00000008F888C028180800203FAA
:1002E60020012638200008F8080000000000203F02
:1002F60020202020300008F8F800F8F80800203FF9
:10030600003F003F200008F830C00008F808203FF2
:10031600200007183F00E01008080810E0000F1042
:10032600202020100F0008F808080808F000203FD9
:10033600210101010000E01008080810E0000F1874
:10034600242438504F0008F8888888887000203F99
:100356002000030C30200070880808083800003898
:10036600202121221C00180808F80808180000009F
:10037600203F2000000008F808000008F808001FC9
:10038600202020201F000878880000C838080000B8
:1003960007380E010000F80800F80008F800033CD2
:1003A6000700073C0300081868808068180820309A
:1003B6002C03032C30200838C800C8380800000079
:1003C600203F2000000010080808C8380800203820
:1003D600262120201800000000FE02020200000074
:1003E600007F40404000000C30C0000000000000CC
:1003F60000010638C00000020202FE0000000040B4
:1004060040407F00000000000402020204000000D9
:1004160000000000000000000000000000008080D6
:1004260080808080808000020204000000000000BE
:10043600000000000000000080808080000000199D
:10044600242222223F2008F8008080000000003F7E
:10045600112020110E000000008080800000000E98
:10046600112020201100000000808088F800000E76
:10047600112020103F200000808080800000001F97
:10048600222222221300008080F08888881800200B
:10049600203F202000000000808080808000006BCC
:1004A60094949493600008F8008080800000203FB8
:1004B600210000203F2000809898000000000020C6
:1004C600203F20200000000000809898000000C017
:1004D6008080807F000008F8000080808000203F38
:1004E60024022D302000000808F80000000000203B
:1004F600203F202000008080808080808000203F78
:1005060020003F20003F8080008080800000203F48
:10051600210000203F200000808080800000001F16
:10052600202020201F00808000808000000080FFA7
:10053600A12020110E000000008080808000000EA7
:10054600112020A0FF8080808000808080002020F5
:100556003F21200001000000808080808000003361
:10056600242424241900008080E0808000000000FC
:10057600001F202000008080000000808000001FF7
:10058600202020103F208080800000808080000195
:100596000E300806010080800080008080800F30C9
:1005A6000C030C300F00008080008080800000204B
:1005B600312E0E3120008080800000808080808176
:1005C6008E701806010000808080808080000021E7
:1005D600302C2221300000000000807C0202000046
:1005E6000000003F404000000000FF000000000047
:1005F6000000FF0000000002027C800000000040B6
:10060600403F000000000006010102020404000051
:10061600000000000000000000E0000000FF0000F5
:1006260000204080000000000000000000000000E4
:10063600000000000000080403000040807F000066
:10064600000000010E000000000000000000000095
:100656000000000000001060028C0008F94EC8205F
:10066600584F48C8080000000000000000000000C5
:1006760000000000000004047E8140300F407F002F
:1006860044847F0404000000000000000000000015
:10069600000000000000101010FF1090003F4848B6
:1006A60044444442700000000000000000000000C6
:1006B6000000000000000444827F010000FF494959
:1006C600494949FF0000000000000000000000004A
:1006D6000000000000002030AC63100808F8090E86
:1006E60008F80808000000000000000000000000F4
:1006F60000000000000022672212928040211608A6
:10070600162140808000000000000000000000006C
:100716000000000000002010EC27F42CE0002292DC
:100726000ED2221E000000000000000000000000A3
:1007360000000000000080601F093F89FF000A09D1
:1007460009FF090908000000000000000000000081
:1007560000000000000020102CE7242400E22C20DA
:10076600BF2028E600000000000000000000000096
:100776000000000000000101017F2111804F2010C0
:100786000F10204F80000000000000000000000055
:1007960000000000000008042322262A22FA24234F
:1007A60022262A02020000000000000000000000CD
:1007B60000000000000001090909196909094989B1
:1007C6007D0909090100000000000000000000008A
:1007D600000000000000001088C433404848487FED
:1007E60048C8484840000000000000000000000023
:1007F600000000000000020100FF00020A3202426F
:10080600827F0202020000000000000000000000DB
:10081600000000000000404042CC0000000000FF45
:1008260000000000000000000000000000000000C2
:100836000000000000000000003F9048201807005C
:1008460007182040800000000000000000000000A3
:10085600000000000000404042CC000004C4040434
:10086600FC04040404000000000000000000000076
:100876000000000000000000003F1048407F40409C
:100886007F414141400000000000000000000000E0
:100896000000000000000000F8888888880808FF2B
:1008A60008090AC808000000000000000000000057
:1008B60000000000000080601F0010201F80402103
:1008C60016182641F8000000000000000000000095
:1008D600000000000000080808F80808081010FFCB
:1008E600101010F0000000000000000000000000E2
:1008F6000000000000001030101F088848300E016C
:100906004080403F000000000000000000000000A2
:10091600000000000000402111097D4B494949496A
:1009260049790101000000000000000000000000FD
:100936000000000000001009FD4B4949F91009FDAF
:100946004B4949F9010000000000000000000000CA
:1009560000000000000000FE0222DA0600FC04048B
:10096600040404FC00000000000000000000000079
:1009760000000000000000FF0810080700FF4141CA
:10098600414141FF0000000000000000000000009F
:100996000000000000001060028C0082864A52A20D
:1009A600524A86808000000000000000000000001F
:1009B60000000000000004047E010010121212FF65
:1009C60012121210000000000000000000000000DB
:1009D600000000000000000404745454555654549A
:1009E6005474040400000000000000000000000031
:1009F600000000000000848341211D050505050552
:100A06007D818185E30000000000000000000000F9
:100A160000000000000000FC0404FC0040404040D0
:100A2600FF404040400000000000000000000000C1
:100A3600000000000000000F04040F00000000008A
:100A4600FF000000000000000000000000000000A1
:100A560000000000000008088888888888FF8888C9
:100A660088888808080000000000000000000000D8
:100A7600000000000000403800003C4040424C406E
:100A86004070040830000000000000000000000074
:100A96000000000000001264000808F8080800FCC6
:100AA600162584FC00000000000000000000000085
:100AB600000000000000047E0110301F080800132B
:100AC600121252827E0000000000000000000000AA
:100AD6000000000000008484A4A4AFA4A4F4A4A48D
:100AE600AFA4E484840000000000000000000000C1
:100AF60000000000000080403A02221A02FF020AAB
:100B06003202FB00000000000000000000000000B0
:100B1600000000000000008088464020100F1010E2
:100B260028244280000000000000000000000000B1
:100B360000000000000080804846201008070810CA
:100B460028464080800000000000000000000000F1
:100B5600000000000000008060F847404444447FE5
:100B6600444444444000000000000000000000002F
:100B7600000000000000010000FF40404444447FA4
:100B8600444444444000000000000000000000000F
:100B9600000000000000108C4404E40495A64424E0
:100BA600148444940C0000000000000000000000C3
:100BB60000000000000002027A414143427E4242A8
:100BC6004243F800000000000000000000000000A2
:100BD6000000000000000484E45C44C40002F282C9
:100BE6008282FE80800000000000000000000000FD
:100BF60000000000000002017F10103F00080808F6
:100C0600084888403F000000000000000000000087
:100C16000000000000000040301E101010FF1010F1
:100C2600101010000000000000000000000000008E
:100C360000000000000081814121110D0301030D18
:100C46001121418181000000000000000000000029
:100C560000000000000000FE02FA02FE4020D81745
:100C66001010F0101000000000000000000000004E
:100C76000000000000008047300F106780402116FA
:100C8600081621408000000000000000000000005F
:060C960000000000000058
:1018FE00EF4E60157D087C07ED1DAA0470011C4A91
:09190E0070F6EF1F70EA1E80E77D
:0119170022AD
:0919F300D290D291C291C290225F
:0719FC00D290C291D29122AA
:0B19A4001217CC1219AFAF041217CCC1
:0519AF00D290C290225D
:0717C500AC071219F37F7855
:1017CC00C290E4FEAD07530580BD8004D291800227
:0E17DC00C291EF25E0FFD290C2900EBE08E64B
:0117EA0022DC
:0E19B4001217C51219AFE4FF1219A40219FC94
:0E19C2001217C51219AF7F401219A40219FCAA
:10174500E924B0FFE433FEE4FDFC121760E4FDFC80
:0B175500FFFE1217607F10E4FDFCFE99
:10176000AB07AA06ED4C60030219C2AF031219B40D
:011770002256
:0217EB008F5C11
:1017ED00E4F9121745E4F55DAF5C7E007D017C00E8
:1017FD00121760055DE55DC3948040EC09B908E200
:01180D0022B8
:10188E00D3EF9400EE940040147D657C18ED1D702E
:0D189E00011CED4C70F7EF1F70E61E80E39B
:0118AB00221A
:10195D00EF1FAA0670011E4A600BE4FDEDC3947BD8
:05196D0050EE0D80F7B3
:011972002252
:10177100A907ED24B0FFE433FEE4FDFC121760E994
:1017810054F0C4540F7E004410FFE4FDFC121760B6
:0C179100E9540FFF7E00E4FDFC0217602D
:101930007F8D12175CE4FDFC7F14FE121760E4FD3E
:07194000FC7FAFFE021760FF
:10197300E4FDFC7F8D121756E4FDFC7FAEFE0217DB
:011983006003
:10184F00E4F9121745E4F5357D017C00E4FFFE1243
:0F185F0017600535E535C3948040ED09B908E3FE
:01186E002257
:10180E00E4F9121745E4F55E7D017C007F017E0050
:10181E00121760055EE55EC3948040EC09B908E2DC
:01182E002297
:0410F0008F438D4459
:1010F400E4F547F9EB24E0F547E543D3947F400753
:10110400E4F54305440544E54664107069AD44AF15
:1011140043121771E4F975F010E547A429F582E448
:1011240035F0F583E582242CF582E5833400F583DC
:10113400E493FF7E007D017C0012176009B908D694
:10114400E54404FDAF43121771E4F975F010E54767
:10115400A429F582E435F0F583E5822434F582E5AB
:10116400833400F583E493FF7E007D017C00121735
:101174006009B908D622AD44AF43121771E4F9E50A
:101184004775F006A42426F582E43400F583E5824D
:1011940029F582E43583F583E493FF7E007D017CA9
:0811A4000012176009B906D71B
:0111AC002220
:041918008F5FA9052F
:10191C007F017E00AD0119ED6009AD5F7C00120EF8
:03192C008080F1C7
:01192F002295
:08137D008F538D548A558B56E5
:10138500E4F55BF559E559C395575065C3E55795A0
:101395005914FD7F0A121918AC55AD56CFCDCFCED5
:1013A500CCCE120E927C007D0A120E928D5AE55B10
:1013B5007023E55714FFE559C39F5019E55A70127C
:1013C500E558C3138559F0A42553FF8558467B205E
:1013D5008016755B01E558C3138559F0A42553FFA5
:1013E500E55A2430FB855846AD541210F005598056
:0113F5009463
:0113F60022D4
:0A1705008F3C8D3D8B3E8A3F8940EA
:10170F00E4F542AB3EAA3FA94085428275830012A1
:10171F000E53FB6020854146AD3DAF3C1210F07477
:10172F0008253CF53CD394784007E4F53C053D058E
:05173F003D054280CED3
:011744002282
:0613F7008F3C8D3D8B3E92
:1013FD00E4F53F121771E4F975F040E53EA4241CA5
:10140D00F582E5F03406F583E58229F582E435832E
:10141D00F583E493FF7E007D017C00121760053F8C
:10142D0009B910D4E53D04FDAF3C121771E4F9750F
:10143D00F040E53EA4243CF582E5F03406F583E565
:10144D008229F582E43583F583E493FF7E007D01E7
:0B145D007C00121760053F09B910D495
:011468002261
:041469008F488B4AD3
:10146D00E4F54FF550E54B5407700BE54B13131393
:10147D00541FF552800AE54B131313541F04F552F4
:10148D008D52E552C3954B503BAD52AF481217717B
:10149D00854851E551C3954A5026AB4CAA4DA94EEE
:1014AD000550E550AE4F7002054F14F5828E831234
:1014BD000E53FF7E007D017C00121760055180D315
:0414CD00055280BE86
:0114D10022F8
:10101000E4FDFC7FAEFE12174FE4FDFC7F40FE12A4
:101020001760E4FDFC7FB0FE121760E4FDFC7F81D9
:10103000FE121760E4FDFC7FFFFE121760E4FDFC6A
:101040007FA1FE121760E4FDFC7FA6FE121760E48C
:10105000FDFC7FA8FE121760E4FDFC7F3FFE121727
:1010600060E4FDFC7FC8FE121760E4FDFC7FD3FE48
:10107000121760E4FDFCFFFE121760E4FDFC7FD553
:10108000FE121760E4FDFC7F80FE121760E4FDFC99
:101090007FD8FE121760E4FDFC7F05FE121760E4A6
:1010A000FDFC7FD9FE121760E4FDFC7FF1FE1217F4
:1010B00060E4FDFC7FDAFE121760E4FDFC7F12FEA7
:1010C000121760E4FDFC7FDBFE121760E4FDFC7F7D
:1010D00030FE121760E4FDFC7F8DFE121760E4FD08
:1010E000FC7F14FE121760E4FDFC7FAFFE02176068
:100C9C00020E3EE86480F8E933E83360110460F03A
:100CAC00ED33EC337009E8FCE9FDEAFEEBFF2204BE
:100CBC0060DED3EB9FEA9EE99DE8C2E78CF0C2F7B9
:100CCC0095F0400CE8CCF8E9CDF9EACEFAEBCFFB85
:100CDC00120E0985D0F05804700320D5B3E80470C7
:100CEC00075002B2D5020E4892D5EC0460F7E4CC62
:100CFC00C0E0C398F8603B94186008400DD0E0FB4E
:100D0C00020E20E4FBFAC9FC8028E830E406E4C9B2
:100D1C00FBE4CAFCE830E305E4C9CACBFCE85407A1
:100D2C006010F8C3E913F9EA13FAEB13FBEC13FCAC
:100D3C00D8F130F52FC3E49CFCEF9BFFEE9AFEED4F
:100D4C0099FDD0E0FBEF4E4D4C701222DB03020EEE
:100D5C0045EC2CFCEF33FFEE33FEED33FDED30E7CD
:100D6C00EB020E20EF2BFFEE3AFEED39FDD0E0FB4F
:100D7C0050130BBB0003020E48ED13FDEE13FEEFF8
:080D8C0013FFEC13FC020E2022
:100D940075F020800E75F010800575F0087D007EDA
:100DA400007F003392D530D503120EE7EC334010A8
:100DB400EF33FFEE33FEED33FDEC33FCD5F0ED22E3
:0E0DC400E5F0247EA2D513CC92E7CDCEFF221F
:100DD200EDD2E7CD33EC3392D524814006E4FFFE19
:100DE200FDFC22FCE4CFCECDCC24E0501174FF8078
:100DF200EDC3CC13CCCD13CDCE13CECF13CF047015
:070E0200F030D5DE020EE71F
:100E0900E9D2E7C933E833F892D5EDD2E7CD33EC2F
:070E190033FC5002B2D522A8
:100E2000EC30E7100FBF000C0EBE00080DBD000433
:100E30000BEB6014A2D5EB13FCED92E7FD2274FFDF
:100E4000FCFDFEFF22E480F8A2D574FF13FC7D8038
:030E5000E480EF4C
:1012FD00020F0BE493A3F8E493A34003F68001F2ED
:10130D0008DFF48029E493A3F85407240CC8C333F1
:10131D00C4540F4420C8834004F456800146F6DFC0
:10132D00E4800B01020408102040809018E3E47E55
:10133D00019360BCA3FF543F30E509541FFEE493B5
:10134D00A360010ECF54C025E060A840B8E493A37C
:10135D00FAE493A3F8E493A3C8C582C8CAC583CAA7
:10136D00F0A3C8C582C8CAC583CADFE9DEE780BE5F
:0118FD0000EA
:100E5300BB010CE58229F582E5833AF583E0225054
:100E630006E92582F8E622BBFE06E92582F8E2229E
:0D0E7300E58229F582E5833AF583E49322B8
:100E8000EF8DF0A4A8F0CF8CF0A428CE8DF0A42E86
:020E9000FE2240
:100E9200BC000BBE0029EF8DF084FFADF022E4CC44
:100EA200F875F008EF2FFFEE33FEEC33FCEE9DEC0D
:100EB200984005FCEE9DFE0FD5F0E9E4CEFD22ED53
:100EC200F8F5F0EE8420D21CFEADF075F008EF2F9D
:100ED200FFED33FD4007985006D5F0F222C398FD8E
:050EE2000FD5F0EA222B
:0E0EE700C3E49FFFE49EFEE49DFDE49CFC221C
:100EF500EB9FF5F0EA9E42F0E99D42F0EC6480C874
:060F050064809845F02213
:00000001FF
